{"abi":[{"type":"constructor","inputs":[],"stateMutability":"nonpayable"},{"type":"function","name":"CONSUMER_ROLE","inputs":[],"outputs":[{"name":"","type":"bytes32","internalType":"bytes32"}],"stateMutability":"view"},{"type":"function","name":"FACTORY_ROLE","inputs":[],"outputs":[{"name":"","type":"bytes32","internalType":"bytes32"}],"stateMutability":"view"},{"type":"function","name":"PRODUCER_ROLE","inputs":[],"outputs":[{"name":"","type":"bytes32","internalType":"bytes32"}],"stateMutability":"view"},{"type":"function","name":"RETAILER_ROLE","inputs":[],"outputs":[{"name":"","type":"bytes32","internalType":"bytes32"}],"stateMutability":"view"},{"type":"function","name":"acceptTransfer","inputs":[{"name":"transferId","type":"uint256","internalType":"uint256"}],"outputs":[],"stateMutability":"nonpayable"},{"type":"function","name":"addressToUserId","inputs":[{"name":"","type":"address","internalType":"address"}],"outputs":[{"name":"","type":"uint256","internalType":"uint256"}],"stateMutability":"view"},{"type":"function","name":"admin","inputs":[],"outputs":[{"name":"","type":"address","internalType":"address"}],"stateMutability":"view"},{"type":"function","name":"changeStatusUser","inputs":[{"name":"userAddress","type":"address","internalType":"address"},{"name":"newStatus","type":"uint8","internalType":"enum SupplyChain.UserStatus"}],"outputs":[],"stateMutability":"nonpayable"},{"type":"function","name":"createToken","inputs":[{"name":"name","type":"string","internalType":"string"},{"name":"totalSupply","type":"uint256","internalType":"uint256"},{"name":"features","type":"string","internalType":"string"},{"name":"parentId","type":"uint256","internalType":"uint256"}],"outputs":[],"stateMutability":"nonpayable"},{"type":"function","name":"getToken","inputs":[{"name":"tokenId","type":"uint256","internalType":"uint256"}],"outputs":[{"name":"id","type":"uint256","internalType":"uint256"},{"name":"creator","type":"address","internalType":"address"},{"name":"name","type":"string","internalType":"string"},{"name":"totalSupply","type":"uint256","internalType":"uint256"},{"name":"features","type":"string","internalType":"string"},{"name":"tokenType","type":"uint8","internalType":"enum SupplyChain.TokenType"},{"name":"parentId","type":"uint256","internalType":"uint256"},{"name":"dateCreated","type":"uint256","internalType":"uint256"}],"stateMutability":"view"},{"type":"function","name":"getTokenBalance","inputs":[{"name":"tokenId","type":"uint256","internalType":"uint256"},{"name":"userAddress","type":"address","internalType":"address"}],"outputs":[{"name":"","type":"uint256","internalType":"uint256"}],"stateMutability":"view"},{"type":"function","name":"getTransfer","inputs":[{"name":"transferId","type":"uint256","internalType":"uint256"}],"outputs":[{"name":"","type":"tuple","internalType":"struct SupplyChain.Transfer","components":[{"name":"id","type":"uint256","internalType":"uint256"},{"name":"from","type":"address","internalType":"address"},{"name":"to","type":"address","internalType":"address"},{"name":"tokenId","type":"uint256","internalType":"uint256"},{"name":"dateCreated","type":"uint64","internalType":"uint64"},{"name":"amount","type":"uint96","internalType":"uint96"},{"name":"status","type":"uint8","internalType":"enum SupplyChain.TransferStatus"}]}],"stateMutability":"view"},{"type":"function","name":"getUserInfo","inputs":[{"name":"userAddress","type":"address","internalType":"address"}],"outputs":[{"name":"","type":"tuple","internalType":"struct SupplyChain.User","components":[{"name":"id","type":"uint256","internalType":"uint256"},{"name":"userAddress","type":"address","internalType":"address"},{"name":"role","type":"string","internalType":"string"},{"name":"status","type":"uint8","internalType":"enum SupplyChain.UserStatus"}]}],"stateMutability":"view"},{"type":"function","name":"getUserTokens","inputs":[{"name":"userAddress","type":"address","internalType":"address"}],"outputs":[{"name":"","type":"uint256[]","internalType":"uint256[]"}],"stateMutability":"view"},{"type":"function","name":"getUserTransfers","inputs":[{"name":"userAddress","type":"address","internalType":"address"}],"outputs":[{"name":"","type":"uint256[]","internalType":"uint256[]"}],"stateMutability":"view"},{"type":"function","name":"isAdmin","inputs":[{"name":"userAddress","type":"address","internalType":"address"}],"outputs":[{"name":"","type":"bool","internalType":"bool"}],"stateMutability":"view"},{"type":"function","name":"nextTokenId","inputs":[],"outputs":[{"name":"","type":"uint256","internalType":"uint256"}],"stateMutability":"view"},{"type":"function","name":"nextTransferId","inputs":[],"outputs":[{"name":"","type":"uint256","internalType":"uint256"}],"stateMutability":"view"},{"type":"function","name":"nextUserId","inputs":[],"outputs":[{"name":"","type":"uint256","internalType":"uint256"}],"stateMutability":"view"},{"type":"function","name":"rejectTransfer","inputs":[{"name":"transferId","type":"uint256","internalType":"uint256"}],"outputs":[],"stateMutability":"nonpayable"},{"type":"function","name":"requestUserRole","inputs":[{"name":"role","type":"string","internalType":"string"}],"outputs":[],"stateMutability":"nonpayable"},{"type":"function","name":"tokens","inputs":[{"name":"","type":"uint256","internalType":"uint256"}],"outputs":[{"name":"id","type":"uint256","internalType":"uint256"},{"name":"creator","type":"address","internalType":"address"},{"name":"name","type":"string","internalType":"string"},{"name":"totalSupply","type":"uint256","internalType":"uint256"},{"name":"features","type":"string","internalType":"string"},{"name":"tokenType","type":"uint8","internalType":"enum SupplyChain.TokenType"},{"name":"parentId","type":"uint256","internalType":"uint256"},{"name":"dateCreated","type":"uint256","internalType":"uint256"}],"stateMutability":"view"},{"type":"function","name":"transfer","inputs":[{"name":"to","type":"address","internalType":"address"},{"name":"tokenId","type":"uint256","internalType":"uint256"},{"name":"amount","type":"uint256","internalType":"uint256"}],"outputs":[],"stateMutability":"nonpayable"},{"type":"function","name":"transfers","inputs":[{"name":"","type":"uint256","internalType":"uint256"}],"outputs":[{"name":"id","type":"uint256","internalType":"uint256"},{"name":"from","type":"address","internalType":"address"},{"name":"to","type":"address","internalType":"address"},{"name":"tokenId","type":"uint256","internalType":"uint256"},{"name":"dateCreated","type":"uint64","internalType":"uint64"},{"name":"amount","type":"uint96","internalType":"uint96"},{"name":"status","type":"uint8","internalType":"enum SupplyChain.TransferStatus"}],"stateMutability":"view"},{"type":"function","name":"users","inputs":[{"name":"","type":"uint256","internalType":"uint256"}],"outputs":[{"name":"id","type":"uint256","internalType":"uint256"},{"name":"userAddress","type":"address","internalType":"address"},{"name":"role","type":"string","internalType":"string"},{"name":"status","type":"uint8","internalType":"enum SupplyChain.UserStatus"}],"stateMutability":"view"},{"type":"event","name":"TokenCreated","inputs":[{"name":"tokenId","type":"uint256","indexed":true,"internalType":"uint256"},{"name":"creator","type":"address","indexed":true,"internalType":"address"},{"name":"name","type":"string","indexed":false,"internalType":"string"},{"name":"totalSupply","type":"uint256","indexed":false,"internalType":"uint256"}],"anonymous":false},{"type":"event","name":"TransferAccepted","inputs":[{"name":"transferId","type":"uint256","indexed":true,"internalType":"uint256"}],"anonymous":false},{"type":"event","name":"TransferRejected","inputs":[{"name":"transferId","type":"uint256","indexed":true,"internalType":"uint256"}],"anonymous":false},{"type":"event","name":"TransferRequested","inputs":[{"name":"transferId","type":"uint256","indexed":true,"internalType":"uint256"},{"name":"from","type":"address","indexed":true,"internalType":"address"},{"name":"to","type":"address","indexed":true,"internalType":"address"},{"name":"tokenId","type":"uint256","indexed":false,"internalType":"uint256"},{"name":"amount","type":"uint256","indexed":false,"internalType":"uint256"}],"anonymous":false},{"type":"event","name":"UserRoleRequested","inputs":[{"name":"user","type":"address","indexed":true,"internalType":"address"},{"name":"role","type":"string","indexed":false,"internalType":"string"}],"anonymous":false},{"type":"event","name":"UserStatusChanged","inputs":[{"name":"user","type":"address","indexed":true,"internalType":"address"},{"name":"status","type":"uint8","indexed":false,"internalType":"enum SupplyChain.UserStatus"}],"anonymous":false}],"bytecode":{"object":"0x6080604052600180556001600255600160035534801561001d575f80fd5b50335f806101000a81548173ffffffffffffffffffffffffffffffffffffffff021916908373ffffffffffffffffffffffffffffffffffffffff160217905550614be38061006a5f395ff3fe608060405234801561000f575f80fd5b5060043610610171575f3560e01c806375794a3c116100dc578063b85b381b11610095578063d67b2d081161006f578063d67b2d0814610493578063e4b50cb8146104af578063ef57e2d2146104e6578063f851a4401461051657610171565b8063b85b381b14610427578063c16fe90714610445578063cb3e1fe71461047557610171565b806375794a3c1461034d5780638782dc001461036b5780638b2d19c0146103875780639377d711146103a3578063a1e6a255146103d9578063b5ffbbcc146103f757610171565b8063335d34101161012e578063335d341014610235578063365b98b2146102655780634bc02da6146102985780634f64b2be146102b6578063519dc8d2146102ed5780636386c1c71461031d57610171565b806304a0fb1714610175578063095bcdb61461019357806312effc32146101af5780632115e7bf146101cb57806324d7806c146101e9578063274fae7c14610219575b5f80fd5b61017d610534565b60405161018a9190612d79565b60405180910390f35b6101ad60048036038101906101a89190612e30565b610558565b005b6101c960048036038101906101c49190612e80565b610e3c565b005b6101d3611005565b6040516101e09190612d79565b60405180910390f35b61020360048036038101906101fe9190612eab565b611029565b6040516102109190612ef0565b60405180910390f35b610233600480360381019061022e9190612e80565b611080565b005b61024f600480360381019061024a9190612eab565b61155b565b60405161025c9190612fc0565b60405180910390f35b61027f600480360381019061027a9190612e80565b6115ee565b60405161028f94939291906130fb565b60405180910390f35b6102a06116cb565b6040516102ad9190612d79565b60405180910390f35b6102d060048036038101906102cb9190612e80565b6116ef565b6040516102e498979695949392919061318b565b60405180910390f35b61030760048036038101906103029190612eab565b61186a565b6040516103149190612fc0565b60405180910390f35b61033760048036038101906103329190612eab565b6118fd565b60405161034491906132db565b60405180910390f35b610355611ad4565b60405161036291906132fb565b60405180910390f35b61038560048036038101906103809190613337565b611ada565b005b6103a1600480360381019061039c91906134a1565b611c78565b005b6103bd60048036038101906103b89190612e80565b611f2f565b6040516103d09796959493929190613576565b60405180910390f35b6103e1611fe3565b6040516103ee91906132fb565b60405180910390f35b610411600480360381019061040c9190612eab565b611fe9565b60405161041e91906132fb565b60405180910390f35b61042f611ffe565b60405161043c91906132fb565b60405180910390f35b61045f600480360381019061045a9190612e80565b612004565b60405161046c919061369c565b60405180910390f35b61047d6121e5565b60405161048a9190612d79565b60405180910390f35b6104ad60048036038101906104a891906136b5565b612209565b005b6104c960048036038101906104c49190612e80565b6128d3565b6040516104dd98979695949392919061318b565b60405180910390f35b61050060048036038101906104fb9190613751565b612ac0565b60405161050d91906132fb565b60405180910390f35b61051e612b68565b60405161052b919061378f565b60405180910390f35b7f992f90ffb92c5ad86f1df6829115f18aaea41d6094dadc8955c35086081a7bb981565b5f60075f3373ffffffffffffffffffffffffffffffffffffffff1673ffffffffffffffffffffffffffffffffffffffff1681526020019081526020015f205490505f81036105db576040517f08c379a00000000000000000000000000000000000000000000000000000000081526004016105d2906137f2565b60405180910390fd5b600160038111156105ef576105ee613088565b5b60065f8381526020019081526020015f206003015f9054906101000a900460ff16600381111561062257610621613088565b5b14610662576040517f08c379a00000000000000000000000000000000000000000000000000000000081526004016106599061385a565b60405180910390fd5b5f83118015610672575060015483105b6106b1576040517f08c379a00000000000000000000000000000000000000000000000000000000081526004016106a8906138c2565b60405180910390fd5b5f82116106f3576040517f08c379a00000000000000000000000000000000000000000000000000000000081526004016106ea9061392a565b60405180910390fd5b6bffffffffffffffffffffffff8016821115610744576040517f08c379a000000000000000000000000000000000000000000000000000000000815260040161073b90613992565b60405180910390fd5b8160045f8581526020019081526020015f206008015f3373ffffffffffffffffffffffffffffffffffffffff1673ffffffffffffffffffffffffffffffffffffffff1681526020019081526020015f205410156107d6576040517f08c379a00000000000000000000000000000000000000000000000000000000081526004016107cd906139fa565b60405180910390fd5b3373ffffffffffffffffffffffffffffffffffffffff168473ffffffffffffffffffffffffffffffffffffffff1603610844576040517f08c379a000000000000000000000000000000000000000000000000000000000815260040161083b90613a62565b60405180910390fd5b5f60075f8673ffffffffffffffffffffffffffffffffffffffff1673ffffffffffffffffffffffffffffffffffffffff1681526020019081526020015f205490505f81036108c7576040517f08c379a00000000000000000000000000000000000000000000000000000000081526004016108be90613aca565b60405180910390fd5b600160038111156108db576108da613088565b5b60065f8381526020019081526020015f206003015f9054906101000a900460ff16600381111561090e5761090d613088565b5b1461094e576040517f08c379a000000000000000000000000000000000000000000000000000000000815260040161094590613b32565b60405180910390fd5b5f60065f8481526020019081526020015f206002016040516109709190613c49565b604051809103902090505f60065f8481526020019081526020015f2060020160405161099c9190613c49565b604051809103902090507f95329f0f598032755f454b63034035528a2f09e00bb3dde055a4f8e3f7b116838203610a34577f992f90ffb92c5ad86f1df6829115f18aaea41d6094dadc8955c35086081a7bb98114610a2f576040517f08c379a0000000000000000000000000000000000000000000000000000000008152600401610a2690613ccf565b60405180910390fd5b610bb5565b7f992f90ffb92c5ad86f1df6829115f18aaea41d6094dadc8955c35086081a7bb98203610ac2577f1534e98f9dd33e3681193a0541f0c2e3d732d183dcdc630aac2b943280af42a08114610abd576040517f08c379a0000000000000000000000000000000000000000000000000000000008152600401610ab490613d5d565b60405180910390fd5b610bb4565b7f1534e98f9dd33e3681193a0541f0c2e3d732d183dcdc630aac2b943280af42a08203610b50577fc0878b4b16a78e8085cba0ca02fc0924f1492924058d153153a3f286e0fd70ff8114610b4b576040517f08c379a0000000000000000000000000000000000000000000000000000000008152600401610b4290613deb565b60405180910390fd5b610bb3565b7fc0878b4b16a78e8085cba0ca02fc0924f1492924058d153153a3f286e0fd70ff8203610bb2576040517f08c379a0000000000000000000000000000000000000000000000000000000008152600401610ba990613e53565b60405180910390fd5b5b5b5b5f60055f60025481526020019081526020015f209050600254815f018190555033816001015f6101000a81548173ffffffffffffffffffffffffffffffffffffffff021916908373ffffffffffffffffffffffffffffffffffffffff16021790555087816002015f6101000a81548173ffffffffffffffffffffffffffffffffffffffff021916908373ffffffffffffffffffffffffffffffffffffffff16021790555086816003018190555042816004015f6101000a81548167ffffffffffffffff021916908367ffffffffffffffff160217905550858160040160086101000a8154816bffffffffffffffffffffffff02191690836bffffffffffffffffffffffff1602179055505f8160040160146101000a81548160ff02191690836002811115610ce657610ce5613088565b5b021790555060095f3373ffffffffffffffffffffffffffffffffffffffff1673ffffffffffffffffffffffffffffffffffffffff1681526020019081526020015f20600254908060018154018082558091505060019003905f5260205f20015f909190919091505560095f8973ffffffffffffffffffffffffffffffffffffffff1673ffffffffffffffffffffffffffffffffffffffff1681526020019081526020015f20600254908060018154018082558091505060019003905f5260205f20015f90919091909150558773ffffffffffffffffffffffffffffffffffffffff163373ffffffffffffffffffffffffffffffffffffffff166002547fc8262dc04f8f56abc884e1f58ca17a373610558a6cebc5e927b9e1c4668e5fdf8a8a604051610e13929190613e71565b60405180910390a460025f815480929190610e2d90613ec5565b91905055505050505050505050565b5f81118015610e4c575060025481105b610e8b576040517f08c379a0000000000000000000000000000000000000000000000000000000008152600401610e8290613f56565b60405180910390fd5b5f60055f8381526020019081526020015f209050806002015f9054906101000a900473ffffffffffffffffffffffffffffffffffffffff1673ffffffffffffffffffffffffffffffffffffffff163373ffffffffffffffffffffffffffffffffffffffff1614610f30576040517f08c379a0000000000000000000000000000000000000000000000000000000008152600401610f2790613fe4565b60405180910390fd5b5f6002811115610f4357610f42613088565b5b8160040160149054906101000a900460ff166002811115610f6757610f66613088565b5b14610fa7576040517f08c379a0000000000000000000000000000000000000000000000000000000008152600401610f9e9061404c565b60405180910390fd5b60028160040160146101000a81548160ff02191690836002811115610fcf57610fce613088565b5b0217905550817f1f4f8a94e17d25044030f376d297769c8f9a1a2a0616e36b498a1e7370b5863f60405160405180910390a25050565b7f1534e98f9dd33e3681193a0541f0c2e3d732d183dcdc630aac2b943280af42a081565b5f805f9054906101000a900473ffffffffffffffffffffffffffffffffffffffff1673ffffffffffffffffffffffffffffffffffffffff168273ffffffffffffffffffffffffffffffffffffffff16149050919050565b5f81118015611090575060025481105b6110cf576040517f08c379a00000000000000000000000000000000000000000000000000000000081526004016110c690613f56565b60405180910390fd5b5f60055f8381526020019081526020015f209050806002015f9054906101000a900473ffffffffffffffffffffffffffffffffffffffff1673ffffffffffffffffffffffffffffffffffffffff163373ffffffffffffffffffffffffffffffffffffffff1614611174576040517f08c379a000000000000000000000000000000000000000000000000000000000815260040161116b906140da565b60405180910390fd5b5f600281111561118757611186613088565b5b8160040160149054906101000a900460ff1660028111156111ab576111aa613088565b5b146111eb576040517f08c379a00000000000000000000000000000000000000000000000000000000081526004016111e29061404c565b60405180910390fd5b5f816003015490505f60045f8381526020019081526020015f206008015f846002015f9054906101000a900473ffffffffffffffffffffffffffffffffffffffff1673ffffffffffffffffffffffffffffffffffffffff1673ffffffffffffffffffffffffffffffffffffffff1681526020019081526020015f2054036112f15760085f836002015f9054906101000a900473ffffffffffffffffffffffffffffffffffffffff1673ffffffffffffffffffffffffffffffffffffffff1673ffffffffffffffffffffffffffffffffffffffff1681526020019081526020015f2081908060018154018082558091505060019003905f5260205f20015f90919091909150555b8160040160089054906101000a90046bffffffffffffffffffffffff166bffffffffffffffffffffffff1660045f8381526020019081526020015f206008015f846001015f9054906101000a900473ffffffffffffffffffffffffffffffffffffffff1673ffffffffffffffffffffffffffffffffffffffff1673ffffffffffffffffffffffffffffffffffffffff1681526020019081526020015f205f82825461139c91906140f8565b925050819055508160040160089054906101000a90046bffffffffffffffffffffffff166bffffffffffffffffffffffff1660045f8381526020019081526020015f206008015f846002015f9054906101000a900473ffffffffffffffffffffffffffffffffffffffff1673ffffffffffffffffffffffffffffffffffffffff1673ffffffffffffffffffffffffffffffffffffffff1681526020019081526020015f205f82825461144e919061412b565b925050819055505f60045f8381526020019081526020015f206008015f846001015f9054906101000a900473ffffffffffffffffffffffffffffffffffffffff1673ffffffffffffffffffffffffffffffffffffffff1673ffffffffffffffffffffffffffffffffffffffff1681526020019081526020015f2054036114fc576114fb826001015f9054906101000a900473ffffffffffffffffffffffffffffffffffffffff1682612b8b565b5b60018260040160146101000a81548160ff0219169083600281111561152457611523613088565b5b0217905550827f91dd4234b45d77221e6eca52c141569a6d0f3b3ffe9b8a18fe8b9aafbc64b44b60405160405180910390a2505050565b606060095f8373ffffffffffffffffffffffffffffffffffffffff1673ffffffffffffffffffffffffffffffffffffffff1681526020019081526020015f208054806020026020016040519081016040528092919081815260200182805480156115e257602002820191905f5260205f20905b8154815260200190600101908083116115ce575b50505050509050919050565b6006602052805f5260405f205f91509050805f015490806001015f9054906101000a900473ffffffffffffffffffffffffffffffffffffffff169080600201805461163890613b7d565b80601f016020809104026020016040519081016040528092919081815260200182805461166490613b7d565b80156116af5780601f10611686576101008083540402835291602001916116af565b820191905f5260205f20905b81548152906001019060200180831161169257829003601f168201915b505050505090806003015f9054906101000a900460ff16905084565b7fc0878b4b16a78e8085cba0ca02fc0924f1492924058d153153a3f286e0fd70ff81565b6004602052805f5260405f205f91509050805f015490806001015f9054906101000a900473ffffffffffffffffffffffffffffffffffffffff169080600201805461173990613b7d565b80601f016020809104026020016040519081016040528092919081815260200182805461176590613b7d565b80156117b05780601f10611787576101008083540402835291602001916117b0565b820191905f5260205f20905b81548152906001019060200180831161179357829003601f168201915b5050505050908060030154908060040180546117cb90613b7d565b80601f01602080910402602001604051908101604052809291908181526020018280546117f790613b7d565b80156118425780601f1061181957610100808354040283529160200191611842565b820191905f5260205f20905b81548152906001019060200180831161182557829003601f168201915b505050505090806005015f9054906101000a900460ff16908060060154908060070154905088565b606060085f8373ffffffffffffffffffffffffffffffffffffffff1673ffffffffffffffffffffffffffffffffffffffff1681526020019081526020015f208054806020026020016040519081016040528092919081815260200182805480156118f157602002820191905f5260205f20905b8154815260200190600101908083116118dd575b50505050509050919050565b611905612c88565b5f60075f8473ffffffffffffffffffffffffffffffffffffffff1673ffffffffffffffffffffffffffffffffffffffff1681526020019081526020015f205490505f8103611988576040517f08c379a000000000000000000000000000000000000000000000000000000000815260040161197f906141a8565b60405180910390fd5b60065f8281526020019081526020015f206040518060800160405290815f8201548152602001600182015f9054906101000a900473ffffffffffffffffffffffffffffffffffffffff1673ffffffffffffffffffffffffffffffffffffffff1673ffffffffffffffffffffffffffffffffffffffff168152602001600282018054611a1290613b7d565b80601f0160208091040260200160405190810160405280929190818152602001828054611a3e90613b7d565b8015611a895780601f10611a6057610100808354040283529160200191611a89565b820191905f5260205f20905b815481529060010190602001808311611a6c57829003601f168201915b50505050508152602001600382015f9054906101000a900460ff166003811115611ab657611ab5613088565b5b6003811115611ac857611ac7613088565b5b81525050915050919050565b60015481565b5f8054906101000a900473ffffffffffffffffffffffffffffffffffffffff1673ffffffffffffffffffffffffffffffffffffffff163373ffffffffffffffffffffffffffffffffffffffff1614611b67576040517f08c379a0000000000000000000000000000000000000000000000000000000008152600401611b5e90614236565b60405180910390fd5b5f60075f8473ffffffffffffffffffffffffffffffffffffffff1673ffffffffffffffffffffffffffffffffffffffff1681526020019081526020015f205490505f8103611bea576040517f08c379a0000000000000000000000000000000000000000000000000000000008152600401611be1906141a8565b60405180910390fd5b8160065f8381526020019081526020015f206003015f6101000a81548160ff02191690836003811115611c2057611c1f613088565b5b02179055508273ffffffffffffffffffffffffffffffffffffffff167fb3b609c7a5e504a312603e90d906d1667fd5caff0a840ad07bf5709a3ca1a04583604051611c6b9190614254565b60405180910390a2505050565b5f818051906020012090507f95329f0f598032755f454b63034035528a2f09e00bb3dde055a4f8e3f7b11683811480611cd057507f992f90ffb92c5ad86f1df6829115f18aaea41d6094dadc8955c35086081a7bb981145b80611cfa57507f1534e98f9dd33e3681193a0541f0c2e3d732d183dcdc630aac2b943280af42a081145b80611d2457507fc0878b4b16a78e8085cba0ca02fc0924f1492924058d153153a3f286e0fd70ff81145b611d63576040517f08c379a0000000000000000000000000000000000000000000000000000000008152600401611d5a906142b7565b60405180910390fd5b5f60075f3373ffffffffffffffffffffffffffffffffffffffff1673ffffffffffffffffffffffffffffffffffffffff1681526020019081526020015f205414611de2576040517f08c379a0000000000000000000000000000000000000000000000000000000008152600401611dd99061431f565b60405180910390fd5b5f60065f60035481526020019081526020015f209050600354815f018190555033816001015f6101000a81548173ffffffffffffffffffffffffffffffffffffffff021916908373ffffffffffffffffffffffffffffffffffffffff16021790555082816002019081611e5591906144da565b505f816003015f6101000a81548160ff02191690836003811115611e7c57611e7b613088565b5b021790555060035460075f3373ffffffffffffffffffffffffffffffffffffffff1673ffffffffffffffffffffffffffffffffffffffff1681526020019081526020015f20819055503373ffffffffffffffffffffffffffffffffffffffff167f713064be2b63db5e6f672d3804bef390205dcf7b58bf7a978b9c31a4d05f39f084604051611f0b91906145a9565b60405180910390a260035f815480929190611f2590613ec5565b9190505550505050565b6005602052805f5260405f205f91509050805f015490806001015f9054906101000a900473ffffffffffffffffffffffffffffffffffffffff1690806002015f9054906101000a900473ffffffffffffffffffffffffffffffffffffffff1690806003015490806004015f9054906101000a900467ffffffffffffffff16908060040160089054906101000a90046bffffffffffffffffffffffff16908060040160149054906101000a900460ff16905087565b60035481565b6007602052805f5260405f205f915090505481565b60025481565b61200c612cd5565b5f8211801561201c575060025482105b61205b576040517f08c379a000000000000000000000000000000000000000000000000000000000815260040161205290613f56565b60405180910390fd5b60055f8381526020019081526020015f206040518060e00160405290815f8201548152602001600182015f9054906101000a900473ffffffffffffffffffffffffffffffffffffffff1673ffffffffffffffffffffffffffffffffffffffff1673ffffffffffffffffffffffffffffffffffffffff168152602001600282015f9054906101000a900473ffffffffffffffffffffffffffffffffffffffff1673ffffffffffffffffffffffffffffffffffffffff1673ffffffffffffffffffffffffffffffffffffffff16815260200160038201548152602001600482015f9054906101000a900467ffffffffffffffff1667ffffffffffffffff1667ffffffffffffffff1681526020016004820160089054906101000a90046bffffffffffffffffffffffff166bffffffffffffffffffffffff166bffffffffffffffffffffffff1681526020016004820160149054906101000a900460ff1660028111156121c8576121c7613088565b5b60028111156121da576121d9613088565b5b815250509050919050565b7f95329f0f598032755f454b63034035528a2f09e00bb3dde055a4f8e3f7b1168381565b5f60075f3373ffffffffffffffffffffffffffffffffffffffff1673ffffffffffffffffffffffffffffffffffffffff1681526020019081526020015f205490505f810361228c576040517f08c379a000000000000000000000000000000000000000000000000000000000815260040161228390614613565b60405180910390fd5b600160038111156122a05761229f613088565b5b60065f8381526020019081526020015f206003015f9054906101000a900460ff1660038111156122d3576122d2613088565b5b14612313576040517f08c379a000000000000000000000000000000000000000000000000000000000815260040161230a9061467b565b60405180910390fd5b5f855111612356576040517f08c379a000000000000000000000000000000000000000000000000000000000815260040161234d906146e3565b60405180910390fd5b5f8411612398576040517f08c379a000000000000000000000000000000000000000000000000000000000815260040161238f90614771565b60405180910390fd5b5f8060065f8481526020019081526020015f206002016040516123bb9190613c49565b604051809103902090507f95329f0f598032755f454b63034035528a2f09e00bb3dde055a4f8e3f7b116838103612436575f91505f8414612431576040517f08c379a0000000000000000000000000000000000000000000000000000000008152600401612428906147ff565b60405180910390fd5b6126ec565b7f992f90ffb92c5ad86f1df6829115f18aaea41d6094dadc8955c35086081a7bb9810361257257600191505f84116124a3576040517f08c379a000000000000000000000000000000000000000000000000000000000815260040161249a9061488d565b60405180910390fd5b60015484106124e7576040517f08c379a00000000000000000000000000000000000000000000000000000000081526004016124de906148f5565b60405180910390fd5b5f60028111156124fa576124f9613088565b5b60045f8681526020019081526020015f206005015f9054906101000a900460ff16600281111561252d5761252c613088565b5b1461256d576040517f08c379a000000000000000000000000000000000000000000000000000000000815260040161256490614983565b60405180910390fd5b6126eb565b7f1534e98f9dd33e3681193a0541f0c2e3d732d183dcdc630aac2b943280af42a081036126af57600291505f84116125df576040517f08c379a00000000000000000000000000000000000000000000000000000000081526004016125d690614a11565b60405180910390fd5b6001548410612623576040517f08c379a000000000000000000000000000000000000000000000000000000000815260040161261a906148f5565b60405180910390fd5b6001600281111561263757612636613088565b5b60045f8681526020019081526020015f206005015f9054906101000a900460ff16600281111561266a57612669613088565b5b146126aa576040517f08c379a00000000000000000000000000000000000000000000000000000000081526004016126a190614a9f565b60405180910390fd5b6126ea565b6040517f08c379a00000000000000000000000000000000000000000000000000000000081526004016126e190614b07565b60405180910390fd5b5b5b5f60045f60015481526020019081526020015f209050600154815f018190555033816001015f6101000a81548173ffffffffffffffffffffffffffffffffffffffff021916908373ffffffffffffffffffffffffffffffffffffffff1602179055508781600201908161275f91906144da565b508681600301819055508581600401908161277a91906144da565b5082816005015f6101000a81548160ff021916908360028111156127a1576127a0613088565b5b021790555084816006018190555042816007018190555086816008015f3373ffffffffffffffffffffffffffffffffffffffff1673ffffffffffffffffffffffffffffffffffffffff1681526020019081526020015f208190555060085f3373ffffffffffffffffffffffffffffffffffffffff1673ffffffffffffffffffffffffffffffffffffffff1681526020019081526020015f20600154908060018154018082558091505060019003905f5260205f20015f90919091909150553373ffffffffffffffffffffffffffffffffffffffff166001547f463ec2a62c46678a81e23cde640446ca4b512f102bb3309cf5a3e2a4ae8314648a8a6040516128aa929190614b25565b60405180910390a360015f8154809291906128c490613ec5565b91905055505050505050505050565b5f8060605f60605f805f80891180156128ed575060015489105b61292c576040517f08c379a0000000000000000000000000000000000000000000000000000000008152600401612923906138c2565b60405180910390fd5b5f60045f8b81526020019081526020015f209050805f0154816001015f9054906101000a900473ffffffffffffffffffffffffffffffffffffffff1682600201836003015484600401856005015f9054906101000a900460ff168660060154876007015485805461299c90613b7d565b80601f01602080910402602001604051908101604052809291908181526020018280546129c890613b7d565b8015612a135780601f106129ea57610100808354040283529160200191612a13565b820191905f5260205f20905b8154815290600101906020018083116129f657829003601f168201915b50505050509550838054612a2690613b7d565b80601f0160208091040260200160405190810160405280929190818152602001828054612a5290613b7d565b8015612a9d5780601f10612a7457610100808354040283529160200191612a9d565b820191905f5260205f20905b815481529060010190602001808311612a8057829003601f168201915b505050505093509850985098509850985098509850985050919395975091939597565b5f8083118015612ad1575060015483105b612b10576040517f08c379a0000000000000000000000000000000000000000000000000000000008152600401612b07906138c2565b60405180910390fd5b60045f8481526020019081526020015f206008015f8373ffffffffffffffffffffffffffffffffffffffff1673ffffffffffffffffffffffffffffffffffffffff1681526020019081526020015f2054905092915050565b5f8054906101000a900473ffffffffffffffffffffffffffffffffffffffff1681565b5f60085f8473ffffffffffffffffffffffffffffffffffffffff1673ffffffffffffffffffffffffffffffffffffffff1681526020019081526020015f2090505f5b8180549050811015612c825782828281548110612bed57612bec614b53565b5b905f5260205f20015403612c6f578160018380549050612c0d91906140f8565b81548110612c1e57612c1d614b53565b5b905f5260205f200154828281548110612c3a57612c39614b53565b5b905f5260205f20018190555081805480612c5757612c56614b80565b5b600190038181905f5260205f20015f90559055612c82565b8080612c7a90613ec5565b915050612bcd565b50505050565b60405180608001604052805f81526020015f73ffffffffffffffffffffffffffffffffffffffff168152602001606081526020015f6003811115612ccf57612cce613088565b5b81525090565b6040518060e001604052805f81526020015f73ffffffffffffffffffffffffffffffffffffffff1681526020015f73ffffffffffffffffffffffffffffffffffffffff1681526020015f81526020015f67ffffffffffffffff1681526020015f6bffffffffffffffffffffffff1681526020015f6002811115612d5b57612d5a613088565b5b81525090565b5f819050919050565b612d7381612d61565b82525050565b5f602082019050612d8c5f830184612d6a565b92915050565b5f604051905090565b5f80fd5b5f80fd5b5f73ffffffffffffffffffffffffffffffffffffffff82169050919050565b5f612dcc82612da3565b9050919050565b612ddc81612dc2565b8114612de6575f80fd5b50565b5f81359050612df781612dd3565b92915050565b5f819050919050565b612e0f81612dfd565b8114612e19575f80fd5b50565b5f81359050612e2a81612e06565b92915050565b5f805f60608486031215612e4757612e46612d9b565b5b5f612e5486828701612de9565b9350506020612e6586828701612e1c565b9250506040612e7686828701612e1c565b9150509250925092565b5f60208284031215612e9557612e94612d9b565b5b5f612ea284828501612e1c565b91505092915050565b5f60208284031215612ec057612ebf612d9b565b5b5f612ecd84828501612de9565b91505092915050565b5f8115159050919050565b612eea81612ed6565b82525050565b5f602082019050612f035f830184612ee1565b92915050565b5f81519050919050565b5f82825260208201905092915050565b5f819050602082019050919050565b612f3b81612dfd565b82525050565b5f612f4c8383612f32565b60208301905092915050565b5f602082019050919050565b5f612f6e82612f09565b612f788185612f13565b9350612f8383612f23565b805f5b83811015612fb3578151612f9a8882612f41565b9750612fa583612f58565b925050600181019050612f86565b5085935050505092915050565b5f6020820190508181035f830152612fd88184612f64565b905092915050565b612fe981612dfd565b82525050565b612ff881612dc2565b82525050565b5f81519050919050565b5f82825260208201905092915050565b5f5b8381101561303557808201518184015260208101905061301a565b5f8484015250505050565b5f601f19601f8301169050919050565b5f61305a82612ffe565b6130648185613008565b9350613074818560208601613018565b61307d81613040565b840191505092915050565b7f4e487b71000000000000000000000000000000000000000000000000000000005f52602160045260245ffd5b600481106130c6576130c5613088565b5b50565b5f8190506130d6826130b5565b919050565b5f6130e5826130c9565b9050919050565b6130f5816130db565b82525050565b5f60808201905061310e5f830187612fe0565b61311b6020830186612fef565b818103604083015261312d8185613050565b905061313c60608301846130ec565b95945050505050565b6003811061315657613155613088565b5b50565b5f81905061316682613145565b919050565b5f61317582613159565b9050919050565b6131858161316b565b82525050565b5f6101008201905061319f5f83018b612fe0565b6131ac602083018a612fef565b81810360408301526131be8189613050565b90506131cd6060830188612fe0565b81810360808301526131df8187613050565b90506131ee60a083018661317c565b6131fb60c0830185612fe0565b61320860e0830184612fe0565b9998505050505050505050565b61321e81612dc2565b82525050565b5f82825260208201905092915050565b5f61323e82612ffe565b6132488185613224565b9350613258818560208601613018565b61326181613040565b840191505092915050565b613275816130db565b82525050565b5f608083015f8301516132905f860182612f32565b5060208301516132a36020860182613215565b50604083015184820360408601526132bb8282613234565b91505060608301516132d0606086018261326c565b508091505092915050565b5f6020820190508181035f8301526132f3818461327b565b905092915050565b5f60208201905061330e5f830184612fe0565b92915050565b60048110613320575f80fd5b50565b5f8135905061333181613314565b92915050565b5f806040838503121561334d5761334c612d9b565b5b5f61335a85828601612de9565b925050602061336b85828601613323565b9150509250929050565b5f80fd5b5f80fd5b7f4e487b71000000000000000000000000000000000000000000000000000000005f52604160045260245ffd5b6133b382613040565b810181811067ffffffffffffffff821117156133d2576133d161337d565b5b80604052505050565b5f6133e4612d92565b90506133f082826133aa565b919050565b5f67ffffffffffffffff82111561340f5761340e61337d565b5b61341882613040565b9050602081019050919050565b828183375f83830152505050565b5f613445613440846133f5565b6133db565b90508281526020810184848401111561346157613460613379565b5b61346c848285613425565b509392505050565b5f82601f83011261348857613487613375565b5b8135613498848260208601613433565b91505092915050565b5f602082840312156134b6576134b5612d9b565b5b5f82013567ffffffffffffffff8111156134d3576134d2612d9f565b5b6134df84828501613474565b91505092915050565b5f67ffffffffffffffff82169050919050565b613504816134e8565b82525050565b5f6bffffffffffffffffffffffff82169050919050565b61352a8161350a565b82525050565b6003811061354157613540613088565b5b50565b5f81905061355182613530565b919050565b5f61356082613544565b9050919050565b61357081613556565b82525050565b5f60e0820190506135895f83018a612fe0565b6135966020830189612fef565b6135a36040830188612fef565b6135b06060830187612fe0565b6135bd60808301866134fb565b6135ca60a0830185613521565b6135d760c0830184613567565b98975050505050505050565b6135ec816134e8565b82525050565b6135fb8161350a565b82525050565b61360a81613556565b82525050565b60e082015f8201516136245f850182612f32565b5060208201516136376020850182613215565b50604082015161364a6040850182613215565b50606082015161365d6060850182612f32565b50608082015161367060808501826135e3565b5060a082015161368360a08501826135f2565b5060c082015161369660c0850182613601565b50505050565b5f60e0820190506136af5f830184613610565b92915050565b5f805f80608085870312156136cd576136cc612d9b565b5b5f85013567ffffffffffffffff8111156136ea576136e9612d9f565b5b6136f687828801613474565b945050602061370787828801612e1c565b935050604085013567ffffffffffffffff81111561372857613727612d9f565b5b61373487828801613474565b925050606061374587828801612e1c565b91505092959194509250565b5f806040838503121561376757613766612d9b565b5b5f61377485828601612e1c565b925050602061378585828601612de9565b9150509250929050565b5f6020820190506137a25f830184612fef565b92915050565b7f53656e646572206e6f74207265676973746572656400000000000000000000005f82015250565b5f6137dc601583613008565b91506137e7826137a8565b602082019050919050565b5f6020820190508181035f830152613809816137d0565b9050919050565b7f53656e646572206e6f7420617070726f766564000000000000000000000000005f82015250565b5f613844601383613008565b915061384f82613810565b602082019050919050565b5f6020820190508181035f83015261387181613838565b9050919050565b7f546f6b656e20646f6573206e6f742065786973740000000000000000000000005f82015250565b5f6138ac601483613008565b91506138b782613878565b602082019050919050565b5f6020820190508181035f8301526138d9816138a0565b9050919050565b7f416d6f756e74206d7573742062652067726561746572207468616e20300000005f82015250565b5f613914601d83613008565b915061391f826138e0565b602082019050919050565b5f6020820190508181035f83015261394181613908565b9050919050565b7f416d6f756e7420746f6f206c61726765000000000000000000000000000000005f82015250565b5f61397c601083613008565b915061398782613948565b602082019050919050565b5f6020820190508181035f8301526139a981613970565b9050919050565b7f496e73756666696369656e742062616c616e63650000000000000000000000005f82015250565b5f6139e4601483613008565b91506139ef826139b0565b602082019050919050565b5f6020820190508181035f830152613a11816139d8565b9050919050565b7f43616e6e6f74207472616e7366657220746f20796f757273656c6600000000005f82015250565b5f613a4c601b83613008565b9150613a5782613a18565b602082019050919050565b5f6020820190508181035f830152613a7981613a40565b9050919050565b7f526563697069656e74206e6f74207265676973746572656400000000000000005f82015250565b5f613ab4601883613008565b9150613abf82613a80565b602082019050919050565b5f6020820190508181035f830152613ae181613aa8565b9050919050565b7f526563697069656e74206e6f7420617070726f766564000000000000000000005f82015250565b5f613b1c601683613008565b9150613b2782613ae8565b602082019050919050565b5f6020820190508181035f830152613b4981613b10565b9050919050565b7f4e487b71000000000000000000000000000000000000000000000000000000005f52602260045260245ffd5b5f6002820490506001821680613b9457607f821691505b602082108103613ba757613ba6613b50565b5b50919050565b5f81905092915050565b5f819050815f5260205f209050919050565b5f8154613bd581613b7d565b613bdf8186613bad565b9450600182165f8114613bf95760018114613c0e57613c40565b60ff1983168652811515820286019350613c40565b613c1785613bb7565b5f5b83811015613c3857815481890152600182019150602081019050613c19565b838801955050505b50505092915050565b5f613c548284613bc9565b915081905092915050565b7f50726f64756365722063616e206f6e6c79207472616e7366657220746f2046615f8201527f63746f7279000000000000000000000000000000000000000000000000000000602082015250565b5f613cb9602583613008565b9150613cc482613c5f565b604082019050919050565b5f6020820190508181035f830152613ce681613cad565b9050919050565b7f466163746f72792063616e206f6e6c79207472616e7366657220746f205265745f8201527f61696c6572000000000000000000000000000000000000000000000000000000602082015250565b5f613d47602583613008565b9150613d5282613ced565b604082019050919050565b5f6020820190508181035f830152613d7481613d3b565b9050919050565b7f52657461696c65722063616e206f6e6c79207472616e7366657220746f20436f5f8201527f6e73756d65720000000000000000000000000000000000000000000000000000602082015250565b5f613dd5602683613008565b9150613de082613d7b565b604082019050919050565b5f6020820190508181035f830152613e0281613dc9565b9050919050565b7f436f6e73756d65722063616e6e6f74207472616e7366657200000000000000005f82015250565b5f613e3d601883613008565b9150613e4882613e09565b602082019050919050565b5f6020820190508181035f830152613e6a81613e31565b9050919050565b5f604082019050613e845f830185612fe0565b613e916020830184612fe0565b9392505050565b7f4e487b71000000000000000000000000000000000000000000000000000000005f52601160045260245ffd5b5f613ecf82612dfd565b91507fffffffffffffffffffffffffffffffffffffffffffffffffffffffffffffffff8203613f0157613f00613e98565b5b600182019050919050565b7f5472616e7366657220646f6573206e6f742065786973740000000000000000005f82015250565b5f613f40601783613008565b9150613f4b82613f0c565b602082019050919050565b5f6020820190508181035f830152613f6d81613f34565b9050919050565b7f4f6e6c7920726563697069656e742063616e2072656a656374207472616e73665f8201527f6572000000000000000000000000000000000000000000000000000000000000602082015250565b5f613fce602283613008565b9150613fd982613f74565b604082019050919050565b5f6020820190508181035f830152613ffb81613fc2565b9050919050565b7f5472616e73666572206973206e6f742070656e64696e670000000000000000005f82015250565b5f614036601783613008565b915061404182614002565b602082019050919050565b5f6020820190508181035f8301526140638161402a565b9050919050565b7f4f6e6c7920726563697069656e742063616e20616363657074207472616e73665f8201527f6572000000000000000000000000000000000000000000000000000000000000602082015250565b5f6140c4602283613008565b91506140cf8261406a565b604082019050919050565b5f6020820190508181035f8301526140f1816140b8565b9050919050565b5f61410282612dfd565b915061410d83612dfd565b925082820390508181111561412557614124613e98565b5b92915050565b5f61413582612dfd565b915061414083612dfd565b925082820190508082111561415857614157613e98565b5b92915050565b7f5573657220646f6573206e6f74206578697374000000000000000000000000005f82015250565b5f614192601383613008565b915061419d8261415e565b602082019050919050565b5f6020820190508181035f8301526141bf81614186565b9050919050565b7f4f6e6c792061646d696e2063616e206368616e676520757365722073746174755f8201527f7300000000000000000000000000000000000000000000000000000000000000602082015250565b5f614220602183613008565b915061422b826141c6565b604082019050919050565b5f6020820190508181035f83015261424d81614214565b9050919050565b5f6020820190506142675f8301846130ec565b92915050565b7f496e76616c696420726f6c6500000000000000000000000000000000000000005f82015250565b5f6142a1600c83613008565b91506142ac8261426d565b602082019050919050565b5f6020820190508181035f8301526142ce81614295565b9050919050565b7f5573657220616c726561647920726567697374657265640000000000000000005f82015250565b5f614309601783613008565b9150614314826142d5565b602082019050919050565b5f6020820190508181035f830152614336816142fd565b9050919050565b5f819050815f5260205f209050919050565b5f6020601f8301049050919050565b5f82821b905092915050565b5f600883026143997fffffffffffffffffffffffffffffffffffffffffffffffffffffffffffffffff8261435e565b6143a3868361435e565b95508019841693508086168417925050509392505050565b5f819050919050565b5f6143de6143d96143d484612dfd565b6143bb565b612dfd565b9050919050565b5f819050919050565b6143f7836143c4565b61440b614403826143e5565b84845461436a565b825550505050565b5f90565b61441f614413565b61442a8184846143ee565b505050565b5b8181101561444d576144425f82614417565b600181019050614430565b5050565b601f821115614492576144638161433d565b61446c8461434f565b8101602085101561447b578190505b61448f6144878561434f565b83018261442f565b50505b505050565b5f82821c905092915050565b5f6144b25f1984600802614497565b1980831691505092915050565b5f6144ca83836144a3565b9150826002028217905092915050565b6144e382612ffe565b67ffffffffffffffff8111156144fc576144fb61337d565b5b6145068254613b7d565b614511828285614451565b5f60209050601f831160018114614542575f8415614530578287015190505b61453a85826144bf565b8655506145a1565b601f1984166145508661433d565b5f5b8281101561457757848901518255600182019150602085019450602081019050614552565b868310156145945784890151614590601f8916826144a3565b8355505b6001600288020188555050505b505050505050565b5f6020820190508181035f8301526145c18184613050565b905092915050565b7f55736572206e6f742072656769737465726564000000000000000000000000005f82015250565b5f6145fd601383613008565b9150614608826145c9565b602082019050919050565b5f6020820190508181035f83015261462a816145f1565b9050919050565b7f55736572206e6f7420617070726f7665640000000000000000000000000000005f82015250565b5f614665601183613008565b915061467082614631565b602082019050919050565b5f6020820190508181035f83015261469281614659565b9050919050565b7f4e616d652063616e6e6f7420626520656d7074790000000000000000000000005f82015250565b5f6146cd601483613008565b91506146d882614699565b602082019050919050565b5f6020820190508181035f8301526146fa816146c1565b9050919050565b7f546f74616c20737570706c79206d7573742062652067726561746572207468615f8201527f6e20300000000000000000000000000000000000000000000000000000000000602082015250565b5f61475b602383613008565b915061476682614701565b604082019050919050565b5f6020820190508181035f8301526147888161474f565b9050919050565b7f50726f6475636572732063616e6e6f74206861766520706172656e7420746f6b5f8201527f656e000000000000000000000000000000000000000000000000000000000000602082015250565b5f6147e9602283613008565b91506147f48261478f565b604082019050919050565b5f6020820190508181035f830152614816816147dd565b9050919050565b7f466163746f7279206d757374207370656369667920706172656e7420746f6b655f8201527f6e00000000000000000000000000000000000000000000000000000000000000602082015250565b5f614877602183613008565b91506148828261481d565b604082019050919050565b5f6020820190508181035f8301526148a48161486b565b9050919050565b7f506172656e7420746f6b656e20646f6573206e6f7420657869737400000000005f82015250565b5f6148df601b83613008565b91506148ea826148ab565b602082019050919050565b5f6020820190508181035f83015261490c816148d3565b9050919050565b7f466163746f727920696e707574206d757374206265205261774d6174657269615f8201527f6c00000000000000000000000000000000000000000000000000000000000000602082015250565b5f61496d602183613008565b915061497882614913565b604082019050919050565b5f6020820190508181035f83015261499a81614961565b9050919050565b7f52657461696c6572206d757374207370656369667920706172656e7420746f6b5f8201527f656e000000000000000000000000000000000000000000000000000000000000602082015250565b5f6149fb602283613008565b9150614a06826149a1565b604082019050919050565b5f6020820190508181035f830152614a28816149ef565b9050919050565b7f52657461696c657220696e707574206d7573742062652050726f6365737365645f8201527f50726f6475637400000000000000000000000000000000000000000000000000602082015250565b5f614a89602783613008565b9150614a9482614a2f565b604082019050919050565b5f6020820190508181035f830152614ab681614a7d565b9050919050565b7f436f6e73756d65722063616e6e6f742063726561746520746f6b656e730000005f82015250565b5f614af1601d83613008565b9150614afc82614abd565b602082019050919050565b5f6020820190508181035f830152614b1e81614ae5565b9050919050565b5f6040820190508181035f830152614b3d8185613050565b9050614b4c6020830184612fe0565b9392505050565b7f4e487b71000000000000000000000000000000000000000000000000000000005f52603260045260245ffd5b7f4e487b71000000000000000000000000000000000000000000000000000000005f52603160045260245ffdfea2646970667358221220483cdac56051bc7b7d7fe4aaefd30332f172c140740ee3e736a666cef9f9991364736f6c63430008140033","linkReferences":{}},"methodIdentifiers":{"CONSUMER_ROLE()":"4bc02da6","FACTORY_ROLE()":"04a0fb17","PRODUCER_ROLE()":"cb3e1fe7","RETAILER_ROLE()":"2115e7bf","acceptTransfer(uint256)":"274fae7c","addressToUserId(address)":"b5ffbbcc","admin()":"f851a440","changeStatusUser(address,uint8)":"8782dc00","createToken(string,uint256,string,uint256)":"d67b2d08","getToken(uint256)":"e4b50cb8","getTokenBalance(uint256,address)":"ef57e2d2","getTransfer(uint256)":"c16fe907","getUserInfo(address)":"6386c1c7","getUserTokens(address)":"519dc8d2","getUserTransfers(address)":"335d3410","isAdmin(address)":"24d7806c","nextTokenId()":"75794a3c","nextTransferId()":"b85b381b","nextUserId()":"a1e6a255","rejectTransfer(uint256)":"12effc32","requestUserRole(string)":"8b2d19c0","tokens(uint256)":"4f64b2be","transfer(address,uint256,uint256)":"095bcdb6","transfers(uint256)":"9377d711","users(uint256)":"365b98b2"},"id":16}